{
  "_format": "hh-sol-artifact-1",
  "contractName": "MinterOwned",
  "sourceName": "contracts/TWAPOracleUpdater.sol",
  "abi": [
    {
      "anonymous": false,
      "inputs": [
        {
          "indexed": false,
          "internalType": "address",
          "name": "oldMinter",
          "type": "address"
        },
        {
          "indexed": true,
          "internalType": "address",
          "name": "newMinter",
          "type": "address"
        }
      ],
      "name": "MinterSet",
      "type": "event"
    },
    {
      "anonymous": false,
      "inputs": [
        {
          "indexed": true,
          "internalType": "address",
          "name": "previousOwner",
          "type": "address"
        },
        {
          "indexed": true,
          "internalType": "address",
          "name": "newOwner",
          "type": "address"
        }
      ],
      "name": "OwnershipTransferred",
      "type": "event"
    },
    {
      "inputs": [],
      "name": "minter",
      "outputs": [
        {
          "internalType": "address",
          "name": "",
          "type": "address"
        }
      ],
      "stateMutability": "view",
      "type": "function"
    },
    {
      "inputs": [],
      "name": "owner",
      "outputs": [
        {
          "internalType": "address",
          "name": "",
          "type": "address"
        }
      ],
      "stateMutability": "view",
      "type": "function"
    },
    {
      "inputs": [],
      "name": "renounceOwnership",
      "outputs": [],
      "stateMutability": "nonpayable",
      "type": "function"
    },
    {
      "inputs": [
        {
          "internalType": "address",
          "name": "minter_",
          "type": "address"
        }
      ],
      "name": "setMinter",
      "outputs": [
        {
          "internalType": "bool",
          "name": "",
          "type": "bool"
        }
      ],
      "stateMutability": "nonpayable",
      "type": "function"
    },
    {
      "inputs": [
        {
          "internalType": "address",
          "name": "newOwner_",
          "type": "address"
        }
      ],
      "name": "transferOwnership",
      "outputs": [],
      "stateMutability": "nonpayable",
      "type": "function"
    }
  ],
  "bytecode": "0x608060405234801561001057600080fd5b50600080546001600160a01b03191633178082556040516001600160a01b039190911691907f8be0079c531659141344cd1fd0a4f28419497f9722a3daafe3b4186f6b6457e0908290a3610434806100696000396000f3fe608060405234801561001057600080fd5b50600436106100575760003560e01c8063075461721461005c578063715018a6146100805780638da5cb5b1461008a578063f2fde38b14610092578063fca3b5aa146100b8575b600080fd5b6100646100f2565b604080516001600160a01b039092168252519081900360200190f35b610088610101565b005b6100646101aa565b610088600480360360208110156100a857600080fd5b50356001600160a01b03166101b9565b6100de600480360360208110156100ce57600080fd5b50356001600160a01b03166102b8565b604080519115158252519081900360200190f35b6001546001600160a01b031690565b6000546001600160a01b03163314610160576040805162461bcd60e51b815260206004820181905260248201527f4f776e61626c653a2063616c6c6572206973206e6f7420746865206f776e6572604482015290519081900360640190fd5b600080546040516001600160a01b03909116907f8be0079c531659141344cd1fd0a4f28419497f9722a3daafe3b4186f6b6457e0908390a3600080546001600160a01b0319169055565b6000546001600160a01b031690565b6000546001600160a01b03163314610218576040805162461bcd60e51b815260206004820181905260248201527f4f776e61626c653a2063616c6c6572206973206e6f7420746865206f776e6572604482015290519081900360640190fd5b6001600160a01b03811661025d5760405162461bcd60e51b81526004018080602001828103825260268152602001806103d96026913960400191505060405180910390fd5b600080546040516001600160a01b03808516939216917f8be0079c531659141344cd1fd0a4f28419497f9722a3daafe3b4186f6b6457e091a3600080546001600160a01b0319166001600160a01b0392909216919091179055565b600080546001600160a01b03163314610318576040805162461bcd60e51b815260206004820181905260248201527f4f776e61626c653a2063616c6c6572206973206e6f7420746865206f776e6572604482015290519081900360640190fd5b6001600160a01b038216610373576040805162461bcd60e51b815260206004820152601d60248201527f4d696e7465722063616e6e6f742062652061646472657373207a65726f000000604482015290519081900360640190fd5b600180546001600160a01b038481166001600160a01b0319831617928390556040805192821680845290519093909116917f02b23d62d8f733974f8cb13eb804b20135521322b70997c991fc01406632389f919081900360200190a25060019291505056fe4f776e61626c653a206e6577206f776e657220697320746865207a65726f2061646472657373a2646970667358221220a3971c8e1f628bec3a1c543dc468a0bb81b46e2b2be25fe5e8b1794e4d21b35b64736f6c63430007050033",
  "linkReferences": {},
  "deployedLinkReferences": {}
}