{
  "_format": "hh-sol-artifact-1",
  "contractName": "TWAPOracleUpdater",
  "sourceName": "contracts/TWAPOracleUpdater.sol",
  "abi": [
    {
      "inputs": [
        {
          "internalType": "string",
          "name": "name_",
          "type": "string"
        },
        {
          "internalType": "string",
          "name": "symbol_",
          "type": "string"
        },
        {
          "internalType": "uint8",
          "name": "decimals_",
          "type": "uint8"
        }
      ],
      "stateMutability": "nonpayable",
      "type": "constructor"
    },
    {
      "anonymous": false,
      "inputs": [
        {
          "indexed": true,
          "internalType": "address",
          "name": "owner",
          "type": "address"
        },
        {
          "indexed": true,
          "internalType": "address",
          "name": "spender",
          "type": "address"
        },
        {
          "indexed": false,
          "internalType": "uint256",
          "name": "value",
          "type": "uint256"
        }
      ],
      "name": "Approval",
      "type": "event"
    },
    {
      "anonymous": false,
      "inputs": [
        {
          "indexed": false,
          "internalType": "address",
          "name": "oldMinter",
          "type": "address"
        },
        {
          "indexed": true,
          "internalType": "address",
          "name": "newMinter",
          "type": "address"
        }
      ],
      "name": "MinterSet",
      "type": "event"
    },
    {
      "anonymous": false,
      "inputs": [
        {
          "indexed": true,
          "internalType": "address",
          "name": "previousOwner",
          "type": "address"
        },
        {
          "indexed": true,
          "internalType": "address",
          "name": "newOwner",
          "type": "address"
        }
      ],
      "name": "OwnershipTransferred",
      "type": "event"
    },
    {
      "anonymous": false,
      "inputs": [
        {
          "indexed": false,
          "internalType": "uint256",
          "name": "previousTWAPEpochPeriod",
          "type": "uint256"
        },
        {
          "indexed": false,
          "internalType": "uint256",
          "name": "newTWAPEpochPeriod",
          "type": "uint256"
        }
      ],
      "name": "TWAPEpochChanged",
      "type": "event"
    },
    {
      "anonymous": false,
      "inputs": [
        {
          "indexed": true,
          "internalType": "address",
          "name": "previousTWAPOracle",
          "type": "address"
        },
        {
          "indexed": true,
          "internalType": "address",
          "name": "newTWAPOracle",
          "type": "address"
        }
      ],
      "name": "TWAPOracleChanged",
      "type": "event"
    },
    {
      "anonymous": false,
      "inputs": [
        {
          "indexed": true,
          "internalType": "address",
          "name": "newTWAPSource",
          "type": "address"
        }
      ],
      "name": "TWAPSourceAdded",
      "type": "event"
    },
    {
      "anonymous": false,
      "inputs": [
        {
          "indexed": true,
          "internalType": "address",
          "name": "removedTWAPSource",
          "type": "address"
        }
      ],
      "name": "TWAPSourceRemoved",
      "type": "event"
    },
    {
      "anonymous": false,
      "inputs": [
        {
          "indexed": true,
          "internalType": "address",
          "name": "from",
          "type": "address"
        },
        {
          "indexed": true,
          "internalType": "address",
          "name": "to",
          "type": "address"
        },
        {
          "indexed": false,
          "internalType": "uint256",
          "name": "value",
          "type": "uint256"
        }
      ],
      "name": "Transfer",
      "type": "event"
    },
    {
      "inputs": [],
      "name": "DOMAIN_SEPARATOR",
      "outputs": [
        {
          "internalType": "bytes32",
          "name": "",
          "type": "bytes32"
        }
      ],
      "stateMutability": "view",
      "type": "function"
    },
    {
      "inputs": [],
      "name": "PERMIT_TYPEHASH",
      "outputs": [
        {
          "internalType": "bytes32",
          "name": "",
          "type": "bytes32"
        }
      ],
      "stateMutability": "view",
      "type": "function"
    },
    {
      "inputs": [
        {
          "internalType": "address",
          "name": "newTWAPSourceDexPool_",
          "type": "address"
        }
      ],
      "name": "addTWAPSource",
      "outputs": [],
      "stateMutability": "nonpayable",
      "type": "function"
    },
    {
      "inputs": [
        {
          "internalType": "address",
          "name": "owner",
          "type": "address"
        },
        {
          "internalType": "address",
          "name": "spender",
          "type": "address"
        }
      ],
      "name": "allowance",
      "outputs": [
        {
          "internalType": "uint256",
          "name": "",
          "type": "uint256"
        }
      ],
      "stateMutability": "view",
      "type": "function"
    },
    {
      "inputs": [
        {
          "internalType": "address",
          "name": "spender",
          "type": "address"
        },
        {
          "internalType": "uint256",
          "name": "amount",
          "type": "uint256"
        }
      ],
      "name": "approve",
      "outputs": [
        {
          "internalType": "bool",
          "name": "",
          "type": "bool"
        }
      ],
      "stateMutability": "nonpayable",
      "type": "function"
    },
    {
      "inputs": [
        {
          "internalType": "address",
          "name": "account",
          "type": "address"
        }
      ],
      "name": "balanceOf",
      "outputs": [
        {
          "internalType": "uint256",
          "name": "",
          "type": "uint256"
        }
      ],
      "stateMutability": "view",
      "type": "function"
    },
    {
      "inputs": [
        {
          "internalType": "uint256",
          "name": "newTWAPEpochPeriod_",
          "type": "uint256"
        }
      ],
      "name": "changeTWAPEpochPeriod",
      "outputs": [],
      "stateMutability": "nonpayable",
      "type": "function"
    },
    {
      "inputs": [
        {
          "internalType": "address",
          "name": "newTWAPOracle_",
          "type": "address"
        }
      ],
      "name": "changeTWAPOracle",
      "outputs": [],
      "stateMutability": "nonpayable",
      "type": "function"
    },
    {
      "inputs": [],
      "name": "decimals",
      "outputs": [
        {
          "internalType": "uint8",
          "name": "",
          "type": "uint8"
        }
      ],
      "stateMutability": "view",
      "type": "function"
    },
    {
      "inputs": [
        {
          "internalType": "address",
          "name": "spender",
          "type": "address"
        },
        {
          "internalType": "uint256",
          "name": "subtractedValue",
          "type": "uint256"
        }
      ],
      "name": "decreaseAllowance",
      "outputs": [
        {
          "internalType": "bool",
          "name": "",
          "type": "bool"
        }
      ],
      "stateMutability": "nonpayable",
      "type": "function"
    },
    {
      "inputs": [
        {
          "internalType": "address",
          "name": "spender",
          "type": "address"
        },
        {
          "internalType": "uint256",
          "name": "addedValue",
          "type": "uint256"
        }
      ],
      "name": "increaseAllowance",
      "outputs": [
        {
          "internalType": "bool",
          "name": "",
          "type": "bool"
        }
      ],
      "stateMutability": "nonpayable",
      "type": "function"
    },
    {
      "inputs": [],
      "name": "marketingWallet",
      "outputs": [
        {
          "internalType": "address",
          "name": "",
          "type": "address"
        }
      ],
      "stateMutability": "view",
      "type": "function"
    },
    {
      "inputs": [],
      "name": "minter",
      "outputs": [
        {
          "internalType": "address",
          "name": "",
          "type": "address"
        }
      ],
      "stateMutability": "view",
      "type": "function"
    },
    {
      "inputs": [],
      "name": "name",
      "outputs": [
        {
          "internalType": "string",
          "name": "",
          "type": "string"
        }
      ],
      "stateMutability": "view",
      "type": "function"
    },
    {
      "inputs": [
        {
          "internalType": "address",
          "name": "owner",
          "type": "address"
        }
      ],
      "name": "nonces",
      "outputs": [
        {
          "internalType": "uint256",
          "name": "",
          "type": "uint256"
        }
      ],
      "stateMutability": "view",
      "type": "function"
    },
    {
      "inputs": [],
      "name": "owner",
      "outputs": [
        {
          "internalType": "address",
          "name": "",
          "type": "address"
        }
      ],
      "stateMutability": "view",
      "type": "function"
    },
    {
      "inputs": [
        {
          "internalType": "address",
          "name": "owner",
          "type": "address"
        },
        {
          "internalType": "address",
          "name": "spender",
          "type": "address"
        },
        {
          "internalType": "uint256",
          "name": "amount",
          "type": "uint256"
        },
        {
          "internalType": "uint256",
          "name": "deadline",
          "type": "uint256"
        },
        {
          "internalType": "uint8",
          "name": "v",
          "type": "uint8"
        },
        {
          "internalType": "bytes32",
          "name": "r",
          "type": "bytes32"
        },
        {
          "internalType": "bytes32",
          "name": "s",
          "type": "bytes32"
        }
      ],
      "name": "permit",
      "outputs": [],
      "stateMutability": "nonpayable",
      "type": "function"
    },
    {
      "inputs": [
        {
          "internalType": "address",
          "name": "twapSourceToRemove_",
          "type": "address"
        }
      ],
      "name": "removeTWAPSource",
      "outputs": [],
      "stateMutability": "nonpayable",
      "type": "function"
    },
    {
      "inputs": [],
      "name": "renounceOwnership",
      "outputs": [],
      "stateMutability": "nonpayable",
      "type": "function"
    },
    {
      "inputs": [
        {
          "internalType": "address",
          "name": "minter_",
          "type": "address"
        }
      ],
      "name": "setMinter",
      "outputs": [
        {
          "internalType": "bool",
          "name": "",
          "type": "bool"
        }
      ],
      "stateMutability": "nonpayable",
      "type": "function"
    },
    {
      "inputs": [],
      "name": "symbol",
      "outputs": [
        {
          "internalType": "string",
          "name": "",
          "type": "string"
        }
      ],
      "stateMutability": "view",
      "type": "function"
    },
    {
      "inputs": [],
      "name": "totalSupply",
      "outputs": [
        {
          "internalType": "uint256",
          "name": "",
          "type": "uint256"
        }
      ],
      "stateMutability": "view",
      "type": "function"
    },
    {
      "inputs": [
        {
          "internalType": "address",
          "name": "recipient",
          "type": "address"
        },
        {
          "internalType": "uint256",
          "name": "amount",
          "type": "uint256"
        }
      ],
      "name": "transfer",
      "outputs": [
        {
          "internalType": "bool",
          "name": "",
          "type": "bool"
        }
      ],
      "stateMutability": "nonpayable",
      "type": "function"
    },
    {
      "inputs": [
        {
          "internalType": "address",
          "name": "sender",
          "type": "address"
        },
        {
          "internalType": "address",
          "name": "recipient",
          "type": "address"
        },
        {
          "internalType": "uint256",
          "name": "amount",
          "type": "uint256"
        }
      ],
      "name": "transferFrom",
      "outputs": [
        {
          "internalType": "bool",
          "name": "",
          "type": "bool"
        }
      ],
      "stateMutability": "nonpayable",
      "type": "function"
    },
    {
      "inputs": [
        {
          "internalType": "address",
          "name": "newOwner_",
          "type": "address"
        }
      ],
      "name": "transferOwnership",
      "outputs": [],
      "stateMutability": "nonpayable",
      "type": "function"
    },
    {
      "inputs": [],
      "name": "twapEpochPeriod",
      "outputs": [
        {
          "internalType": "uint256",
          "name": "",
          "type": "uint256"
        }
      ],
      "stateMutability": "view",
      "type": "function"
    },
    {
      "inputs": [],
      "name": "twapOracle",
      "outputs": [
        {
          "internalType": "contract ITWAPOracle",
          "name": "",
          "type": "address"
        }
      ],
      "stateMutability": "view",
      "type": "function"
    }
  ],
  "bytecode": "0x608060405260058054610100600160a81b031916742fe20cb1451c9b195a003b98bdd5df361d467d52001790553480156200003957600080fd5b5060405162001de138038062001de1833981810160405260608110156200005f57600080fd5b81019080805160405193929190846401000000008211156200008057600080fd5b9083019060208201858111156200009657600080fd5b8251640100000000811182820188101715620000b157600080fd5b82525081516020918201929091019080838360005b83811015620000e0578181015183820152602001620000c6565b50505050905090810190601f1680156200010e5780820380516001836020036101000a031916815260200191505b50604052602001805160405193929190846401000000008211156200013257600080fd5b9083019060208201858111156200014857600080fd5b82516401000000008111828201881017156200016357600080fd5b82525081516020918201929091019080838360005b838110156200019257818101518382015260200162000178565b50505050905090810190601f168015620001c05780820380516001836020036101000a031916815260200191505b50604052602090810151855190935085925084918491620001e89160039190860190620003ac565b508151620001fe906004906020850190620003ac565b506005805460ff191660ff92909216919091179055504690507f8b73c3c69bb8fe3d512ecc4cf759cc79239f7b179b0ffacaa9a75d522b39400f6200024262000312565b805160209182012060408051808201825260018152603160f81b90840152805180840194909452838101919091527fc89efdaa54c0f20c7adf612882df0950f5a951637e0307cdcb4c672f298b8bc6606084015260808301939093523060a0808401919091528351808403909101815260c0909201928390528151910120600755600880546001600160a01b0319163317908190556001600160a01b0316906000907f8be0079c531659141344cd1fd0a4f28419497f9722a3daafe3b4186f6b6457e0908290a350505062000458565b60038054604080516020601f6002600019610100600188161502019095169490940493840181900481028201810190925282815260609390929091830182828015620003a25780601f106200037657610100808354040283529160200191620003a2565b820191906000526020600020905b8154815290600101906020018083116200038457829003601f168201915b5050505050905090565b828054600181600116156101000203166002900490600052602060002090601f016020900481019282620003e457600085556200042f565b82601f10620003ff57805160ff19168380011785556200042f565b828001600101855582156200042f579182015b828111156200042f57825182559160200191906001019062000412565b506200043d92915062000441565b5090565b5b808211156200043d576000815560010162000442565b61197980620004686000396000f3fe608060405234801561001057600080fd5b50600436106101a95760003560e01c806375f0a874116100f9578063c18230ec11610097578063dd62ed3e11610071578063dd62ed3e146104c9578063efa058b1146104f7578063f2fde38b1461051d578063fca3b5aa14610543576101a9565b8063c18230ec1461044a578063c5bc700214610470578063d505accf14610478576101a9565b80639043292a116100d35780639043292a146103e257806395d89b41146103ea578063a457c2d7146103f2578063a9059cbb1461041e576101a9565b806375f0a874146103ac5780637ecebe00146103b45780638da5cb5b146103da576101a9565b8063313ce56711610166578063395093511161014057806339509351146103355780634daff8a31461036157806370a082311461037e578063715018a6146103a4576101a9565b8063313ce567146102e75780633144fdf6146103055780633644e5151461032d576101a9565b806306fdde03146101ae578063075461721461022b578063095ea7b31461024f57806318160ddd1461028f57806323b872dd146102a957806330adf81f146102df575b600080fd5b6101b6610569565b6040805160208082528351818301528351919283929083019185019080838360005b838110156101f05781810151838201526020016101d8565b50505050905090810190601f16801561021d5780820380516001836020036101000a031916815260200191505b509250505060405180910390f35b6102336105ff565b604080516001600160a01b039092168252519081900360200190f35b61027b6004803603604081101561026557600080fd5b506001600160a01b03813516906020013561060e565b604080519115158252519081900360200190f35b610297610625565b60408051918252519081900360200190f35b61027b600480360360608110156102bf57600080fd5b506001600160a01b0381358116916020810135909116906040013561062b565b610297610642565b6102ef610666565b6040805160ff9092168252519081900360200190f35b61032b6004803603602081101561031b57600080fd5b50356001600160a01b031661066f565b005b610297610718565b61027b6004803603604081101561034b57600080fd5b506001600160a01b03813516906020013561071e565b61032b6004803603602081101561037757600080fd5b5035610759565b6102976004803603602081101561039457600080fd5b50356001600160a01b0316610827565b61032b610842565b6102336108d9565b610297600480360360208110156103ca57600080fd5b50356001600160a01b03166108ed565b61023361090e565b61023361091d565b6101b661092c565b61027b6004803603604081101561040857600080fd5b506001600160a01b03813516906020013561098d565b61027b6004803603604081101561043457600080fd5b506001600160a01b0381351690602001356109dc565b61032b6004803603602081101561046057600080fd5b50356001600160a01b03166109e9565b610297610ac9565b61032b600480360360e081101561048e57600080fd5b506001600160a01b03813581169160208101359091169060408101359060608101359060ff6080820135169060a08101359060c00135610acf565b610297600480360360408110156104df57600080fd5b506001600160a01b0381358116916020013516610d12565b61032b6004803603602081101561050d57600080fd5b50356001600160a01b0316610d3d565b61032b6004803603602081101561053357600080fd5b50356001600160a01b0316610e1d565b61027b6004803603602081101561055957600080fd5b50356001600160a01b0316610f0b565b60038054604080516020601f60026000196101006001881615020190951694909404938401819004810282018101909252828152606093909290918301828280156105f55780601f106105ca576101008083540402835291602001916105f5565b820191906000526020600020905b8154815290600101906020018083116105d857829003601f168201915b5050505050905090565b6009546001600160a01b031690565b600061061b33848461101b565b5060015b92915050565b60025490565b60006106388484846111bf565b5060019392505050565b7f6e71edae12b1b97f4d1f60370fef10105fa2faae0126114a169c64845d6126c981565b60055460ff1690565b6008546001600160a01b031633146106bc576040805162461bcd60e51b815260206004820181905260248201526000805160206118b6833981519152604482015290519081900360640190fd5b600c546040516001600160a01b038084169216907f04d449efb9af82ca8fd89ca047e3c023180cac06245c5ace8ecf96c7f637c00a90600090a3600c80546001600160a01b0319166001600160a01b0392909216919091179055565b60075481565b3360008181526001602090815260408083206001600160a01b0387168452909152812054909161061b918590610754908661131a565b61101b565b6008546001600160a01b031633146107a6576040805162461bcd60e51b815260206004820181905260248201526000805160206118b6833981519152604482015290519081900360640190fd5b600081116107e55760405162461bcd60e51b815260040180806020018281038252603c815260200180611854603c913960400191505060405180910390fd5b600d54604080519182526020820183905280517fcddeab46bd7c7fa32f59b80523bce21904a7f2031ac8fbefa3f9c2ba24cc0e9f9281900390910190a1600d55565b6001600160a01b031660009081526020819052604090205490565b6008546001600160a01b0316331461088f576040805162461bcd60e51b815260206004820181905260248201526000805160206118b6833981519152604482015290519081900360640190fd5b6008546040516000916001600160a01b0316907f8be0079c531659141344cd1fd0a4f28419497f9722a3daafe3b4186f6b6457e0908390a3600880546001600160a01b0319169055565b60055461010090046001600160a01b031681565b6001600160a01b038116600090815260066020526040812061061f9061137b565b6008546001600160a01b031690565b600c546001600160a01b031681565b60048054604080516020601f60026000196101006001881615020190951694909404938401819004810282018101909252828152606093909290918301828280156105f55780601f106105ca576101008083540402835291602001916105f5565b600061061b33846107548560405180606001604052806025815260200161191f602591393360009081526001602090815260408083206001600160a01b038d168452909152902054919061137f565b600061061b3384846111bf565b6008546001600160a01b03163314610a36576040805162461bcd60e51b815260206004820181905260248201526000805160206118b6833981519152604482015290519081900360640190fd5b610a41600a82611416565b610a92576040805162461bcd60e51b815260206004820152601b60248201527f5457415020536f7572636520616c72656164792073746f7265642e0000000000604482015290519081900360640190fd5b6040516001600160a01b038216907fb702ce677d2c4388aab38b10f96ca003dbe3dadb46fbf858cb7d55cba6bebc4690600090a250565b600d5481565b83421115610b24576040805162461bcd60e51b815260206004820152601860248201527f5065726d69743a206578706972656420646561646c696e650000000000000000604482015290519081900360640190fd5b6001600160a01b03871660009081526006602052604081207f6e71edae12b1b97f4d1f60370fef10105fa2faae0126114a169c64845d6126c990899089908990610b6d9061137b565b604080516020808201979097526001600160a01b0395861681830152939094166060840152608083019190915260a082015260c08082018990528251808303909101815260e08201835280519084012060075461190160f01b610100840152610102830152610122808301829052835180840390910181526101428301808552815191860191909120600091829052610162840180865281905260ff8a166101828501526101a284018990526101c28401889052935191955092936001926101e280820193601f1981019281900390910190855afa158015610c53573d6000803e3d6000fd5b5050604051601f1901519150506001600160a01b03811615801590610c895750896001600160a01b0316816001600160a01b0316145b610cda576040805162461bcd60e51b815260206004820152601e60248201527f45524332305065726d69743a20496e76616c6964207369676e61747572650000604482015290519081900360640190fd5b6001600160a01b038a166000908152600660205260409020610cfb9061142b565b610d068a8a8a61101b565b50505050505050505050565b6001600160a01b03918216600090815260016020908152604080832093909416825291909152205490565b6008546001600160a01b03163314610d8a576040805162461bcd60e51b815260206004820181905260248201526000805160206118b6833981519152604482015290519081900360640190fd5b610d95600a82611434565b610de6576040805162461bcd60e51b815260206004820152601860248201527f5457415020736f75726365206e6f742070726573656e742e0000000000000000604482015290519081900360640190fd5b6040516001600160a01b038216907f677b09947a451559cdf8756f4cb518daf9620feb88ad8f3434a77f4cbfc73bc990600090a250565b6008546001600160a01b03163314610e6a576040805162461bcd60e51b815260206004820181905260248201526000805160206118b6833981519152604482015290519081900360640190fd5b6001600160a01b038116610eaf5760405162461bcd60e51b815260040180806020018281038252602681526020018061180c6026913960400191505060405180910390fd5b6008546040516001600160a01b038084169216907f8be0079c531659141344cd1fd0a4f28419497f9722a3daafe3b4186f6b6457e090600090a3600880546001600160a01b0319166001600160a01b0392909216919091179055565b6008546000906001600160a01b03163314610f5b576040805162461bcd60e51b815260206004820181905260248201526000805160206118b6833981519152604482015290519081900360640190fd5b6001600160a01b038216610fb6576040805162461bcd60e51b815260206004820152601d60248201527f4d696e7465722063616e6e6f742062652061646472657373207a65726f000000604482015290519081900360640190fd5b600980546001600160a01b038481166001600160a01b0319831617928390556040805192821680845290519093909116917f02b23d62d8f733974f8cb13eb804b20135521322b70997c991fc01406632389f919081900360200190a250600192915050565b6110486040518060400160405280600a81526020016930b2323932b9b990181d60b11b8152506000611449565b6110786040518060400160405280600e81526020016d30b2323932b9b99037bbb732b91d60911b81525084611449565b6110aa6040518060400160405280601081526020016f30b2323932b9b99039b832b73232b91d60811b81525083611449565b6110d36040518060400160405280600781526020016630b6b7bab73a1d60c91b81525082611504565b6001600160a01b0383166111185760405162461bcd60e51b81526004018080602001828103825260248152602001806118fb6024913960400191505060405180910390fd5b6001600160a01b03821661115d5760405162461bcd60e51b81526004018080602001828103825260228152602001806118326022913960400191505060405180910390fd5b6001600160a01b03808416600081815260016020908152604080832094871680845294825291829020859055815185815291517f8c5be1e5ebec7d5bd14f71427d1e84f3dd0314c0f7b2291e5b200ac8c7c3b9259281900390910190a3505050565b6001600160a01b0383166112045760405162461bcd60e51b81526004018080602001828103825260258152602001806118d66025913960400191505060405180910390fd5b6001600160a01b0382166112495760405162461bcd60e51b81526004018080602001828103825260238152602001806117e96023913960400191505060405180910390fd5b6112548383836115b2565b61129181604051806060016040528060268152602001611890602691396001600160a01b038616600090815260208190526040902054919061137f565b6001600160a01b0380851660009081526020819052604080822093909355908416815220546112c0908261131a565b6001600160a01b038084166000818152602081815260409182902094909455805185815290519193928716927fddf252ad1be2c89b69c2b068fc378daa952ba7f163c4a11628f55a4df523b3ef92918290030190a3505050565b600082820183811015611374576040805162461bcd60e51b815260206004820152601b60248201527f536166654d6174683a206164646974696f6e206f766572666c6f770000000000604482015290519081900360640190fd5b9392505050565b5490565b6000818484111561140e5760405162461bcd60e51b81526004018080602001828103825283818151815260200191508051906020019080838360005b838110156113d35781810151838201526020016113bb565b50505050905090810190601f1680156114005780820380516001836020036101000a031916815260200191505b509250505060405180910390fd5b505050900390565b6000611374836001600160a01b0384166115f4565b80546001019055565b6000611374836001600160a01b03841661163e565b61150082826040516024018080602001836001600160a01b03168152602001828103825284818151815260200191508051906020019080838360005b8381101561149d578181015183820152602001611485565b50505050905090810190601f1680156114ca5780820380516001836020036101000a031916815260200191505b5060408051601f198184030181529190526020810180516001600160e01b031663319af33360e01b179052935061170492505050565b5050565b61150082826040516024018080602001838152602001828103825284818151815260200191508051906020019080838360005b8381101561154f578181015183820152602001611537565b50505050905090810190601f16801561157c5780820380516001836020036101000a031916815260200191505b5060408051601f198184030181529190526020810180516001600160e01b03166309710a9d60e41b179052935061170492505050565b6115bd600a84611725565b156115d3576115ce83600d5461173a565b6115ef565b6115de600a83611725565b156115ef576115ef82600d5461173a565b505050565b600061160083836117d0565b6116365750815460018181018455600084815260208082209093018490558454848252828601909352604090209190915561061f565b50600061061f565b600081815260018301602052604081205480156116fa578354600019808301919081019060009087908390811061167157fe5b906000526020600020015490508087600001848154811061168e57fe5b6000918252602080832090910192909255828152600189810190925260409020908401905586548790806116be57fe5b6001900381819060005260206000200160009055905586600101600087815260200190815260200160002060009055600194505050505061061f565b600091505061061f565b80516a636f6e736f6c652e6c6f67602083016000808483855afa5050505050565b6000611374836001600160a01b0384166117d0565b611745600a83611725565b1561150057600c54604080516377a8d4c160e11b81526001600160a01b038581166004830152602482018590529151919092169163ef51a9829160448083019260209291908290030181600087803b1580156117a057600080fd5b505af11580156117b4573d6000803e3d6000fd5b505050506040513d60208110156117ca57600080fd5b50505050565b6000908152600191909101602052604090205415159056fe45524332303a207472616e7366657220746f20746865207a65726f20616464726573734f776e61626c653a206e6577206f776e657220697320746865207a65726f206164647265737345524332303a20617070726f766520746f20746865207a65726f2061646472657373545741504f7261636c65557064617465723a20545741502045706f636820706572696f64206d7573742062652067726561746572207468616e20302e45524332303a207472616e7366657220616d6f756e7420657863656564732062616c616e63654f776e61626c653a2063616c6c6572206973206e6f7420746865206f776e657245524332303a207472616e736665722066726f6d20746865207a65726f206164647265737345524332303a20617070726f76652066726f6d20746865207a65726f206164647265737345524332303a2064656372656173656420616c6c6f77616e63652062656c6f77207a65726fa2646970667358221220825ccfc904cf3a51ce547acebd49e07df33fb04acfa8117149d64c6ab9afae3c64736f6c63430007050033",
  "linkReferences": {},
  "deployedLinkReferences": {}
}