{
  "_format": "hh-sol-artifact-1",
  "contractName": "sInfinityDao",
  "sourceName": "contracts/sInfinityDAO.sol",
  "abi": [
    {
      "inputs": [],
      "stateMutability": "nonpayable",
      "type": "constructor"
    },
    {
      "anonymous": false,
      "inputs": [
        {
          "indexed": true,
          "internalType": "address",
          "name": "owner",
          "type": "address"
        },
        {
          "indexed": true,
          "internalType": "address",
          "name": "spender",
          "type": "address"
        },
        {
          "indexed": false,
          "internalType": "uint256",
          "name": "value",
          "type": "uint256"
        }
      ],
      "name": "Approval",
      "type": "event"
    },
    {
      "anonymous": false,
      "inputs": [
        {
          "indexed": true,
          "internalType": "uint256",
          "name": "epoch",
          "type": "uint256"
        },
        {
          "indexed": false,
          "internalType": "uint256",
          "name": "rebase",
          "type": "uint256"
        },
        {
          "indexed": false,
          "internalType": "uint256",
          "name": "index",
          "type": "uint256"
        }
      ],
      "name": "LogRebase",
      "type": "event"
    },
    {
      "anonymous": false,
      "inputs": [
        {
          "indexed": true,
          "internalType": "uint256",
          "name": "epoch",
          "type": "uint256"
        },
        {
          "indexed": false,
          "internalType": "uint256",
          "name": "timestamp",
          "type": "uint256"
        },
        {
          "indexed": false,
          "internalType": "uint256",
          "name": "totalSupply",
          "type": "uint256"
        }
      ],
      "name": "LogSupply",
      "type": "event"
    },
    {
      "anonymous": false,
      "inputs": [
        {
          "indexed": false,
          "internalType": "address",
          "name": "vault",
          "type": "address"
        }
      ],
      "name": "LogVaultChanged",
      "type": "event"
    },
    {
      "anonymous": false,
      "inputs": [
        {
          "indexed": true,
          "internalType": "address",
          "name": "previousOwner",
          "type": "address"
        },
        {
          "indexed": true,
          "internalType": "address",
          "name": "newOwner",
          "type": "address"
        }
      ],
      "name": "OwnershipTransferred",
      "type": "event"
    },
    {
      "anonymous": false,
      "inputs": [
        {
          "indexed": true,
          "internalType": "address",
          "name": "from",
          "type": "address"
        },
        {
          "indexed": true,
          "internalType": "address",
          "name": "to",
          "type": "address"
        },
        {
          "indexed": false,
          "internalType": "uint256",
          "name": "value",
          "type": "uint256"
        }
      ],
      "name": "Transfer",
      "type": "event"
    },
    {
      "inputs": [],
      "name": "DOMAIN_SEPARATOR",
      "outputs": [
        {
          "internalType": "bytes32",
          "name": "",
          "type": "bytes32"
        }
      ],
      "stateMutability": "view",
      "type": "function"
    },
    {
      "inputs": [],
      "name": "INDEX",
      "outputs": [
        {
          "internalType": "uint256",
          "name": "",
          "type": "uint256"
        }
      ],
      "stateMutability": "view",
      "type": "function"
    },
    {
      "inputs": [],
      "name": "PERMIT_TYPEHASH",
      "outputs": [
        {
          "internalType": "bytes32",
          "name": "",
          "type": "bytes32"
        }
      ],
      "stateMutability": "view",
      "type": "function"
    },
    {
      "inputs": [
        {
          "internalType": "address",
          "name": "owner_",
          "type": "address"
        },
        {
          "internalType": "address",
          "name": "spender",
          "type": "address"
        }
      ],
      "name": "allowance",
      "outputs": [
        {
          "internalType": "uint256",
          "name": "",
          "type": "uint256"
        }
      ],
      "stateMutability": "view",
      "type": "function"
    },
    {
      "inputs": [
        {
          "internalType": "address",
          "name": "spender",
          "type": "address"
        },
        {
          "internalType": "uint256",
          "name": "value",
          "type": "uint256"
        }
      ],
      "name": "approve",
      "outputs": [
        {
          "internalType": "bool",
          "name": "",
          "type": "bool"
        }
      ],
      "stateMutability": "nonpayable",
      "type": "function"
    },
    {
      "inputs": [
        {
          "internalType": "uint256",
          "name": "gons",
          "type": "uint256"
        }
      ],
      "name": "balanceForGons",
      "outputs": [
        {
          "internalType": "uint256",
          "name": "",
          "type": "uint256"
        }
      ],
      "stateMutability": "view",
      "type": "function"
    },
    {
      "inputs": [
        {
          "internalType": "address",
          "name": "who",
          "type": "address"
        }
      ],
      "name": "balanceOf",
      "outputs": [
        {
          "internalType": "uint256",
          "name": "",
          "type": "uint256"
        }
      ],
      "stateMutability": "view",
      "type": "function"
    },
    {
      "inputs": [],
      "name": "circulatingSupply",
      "outputs": [
        {
          "internalType": "uint256",
          "name": "",
          "type": "uint256"
        }
      ],
      "stateMutability": "view",
      "type": "function"
    },
    {
      "inputs": [],
      "name": "decimals",
      "outputs": [
        {
          "internalType": "uint8",
          "name": "",
          "type": "uint8"
        }
      ],
      "stateMutability": "view",
      "type": "function"
    },
    {
      "inputs": [
        {
          "internalType": "address",
          "name": "spender",
          "type": "address"
        },
        {
          "internalType": "uint256",
          "name": "subtractedValue",
          "type": "uint256"
        }
      ],
      "name": "decreaseAllowance",
      "outputs": [
        {
          "internalType": "bool",
          "name": "",
          "type": "bool"
        }
      ],
      "stateMutability": "nonpayable",
      "type": "function"
    },
    {
      "inputs": [
        {
          "internalType": "uint256",
          "name": "amount",
          "type": "uint256"
        }
      ],
      "name": "gonsForBalance",
      "outputs": [
        {
          "internalType": "uint256",
          "name": "",
          "type": "uint256"
        }
      ],
      "stateMutability": "view",
      "type": "function"
    },
    {
      "inputs": [
        {
          "internalType": "address",
          "name": "spender",
          "type": "address"
        },
        {
          "internalType": "uint256",
          "name": "addedValue",
          "type": "uint256"
        }
      ],
      "name": "increaseAllowance",
      "outputs": [
        {
          "internalType": "bool",
          "name": "",
          "type": "bool"
        }
      ],
      "stateMutability": "nonpayable",
      "type": "function"
    },
    {
      "inputs": [],
      "name": "index",
      "outputs": [
        {
          "internalType": "uint256",
          "name": "",
          "type": "uint256"
        }
      ],
      "stateMutability": "view",
      "type": "function"
    },
    {
      "inputs": [
        {
          "internalType": "address",
          "name": "vault_",
          "type": "address"
        }
      ],
      "name": "initialize",
      "outputs": [],
      "stateMutability": "nonpayable",
      "type": "function"
    },
    {
      "inputs": [],
      "name": "initializer",
      "outputs": [
        {
          "internalType": "address",
          "name": "",
          "type": "address"
        }
      ],
      "stateMutability": "view",
      "type": "function"
    },
    {
      "inputs": [],
      "name": "marketingWallet",
      "outputs": [
        {
          "internalType": "address",
          "name": "",
          "type": "address"
        }
      ],
      "stateMutability": "view",
      "type": "function"
    },
    {
      "inputs": [],
      "name": "name",
      "outputs": [
        {
          "internalType": "string",
          "name": "",
          "type": "string"
        }
      ],
      "stateMutability": "view",
      "type": "function"
    },
    {
      "inputs": [
        {
          "internalType": "address",
          "name": "owner",
          "type": "address"
        }
      ],
      "name": "nonces",
      "outputs": [
        {
          "internalType": "uint256",
          "name": "",
          "type": "uint256"
        }
      ],
      "stateMutability": "view",
      "type": "function"
    },
    {
      "inputs": [],
      "name": "owner",
      "outputs": [
        {
          "internalType": "address",
          "name": "",
          "type": "address"
        }
      ],
      "stateMutability": "view",
      "type": "function"
    },
    {
      "inputs": [
        {
          "internalType": "address",
          "name": "owner",
          "type": "address"
        },
        {
          "internalType": "address",
          "name": "spender",
          "type": "address"
        },
        {
          "internalType": "uint256",
          "name": "amount",
          "type": "uint256"
        },
        {
          "internalType": "uint256",
          "name": "deadline",
          "type": "uint256"
        },
        {
          "internalType": "uint8",
          "name": "v",
          "type": "uint8"
        },
        {
          "internalType": "bytes32",
          "name": "r",
          "type": "bytes32"
        },
        {
          "internalType": "bytes32",
          "name": "s",
          "type": "bytes32"
        }
      ],
      "name": "permit",
      "outputs": [],
      "stateMutability": "nonpayable",
      "type": "function"
    },
    {
      "inputs": [
        {
          "internalType": "uint256",
          "name": "profit_",
          "type": "uint256"
        },
        {
          "internalType": "uint256",
          "name": "epoch_",
          "type": "uint256"
        }
      ],
      "name": "rebase",
      "outputs": [
        {
          "internalType": "uint256",
          "name": "",
          "type": "uint256"
        }
      ],
      "stateMutability": "nonpayable",
      "type": "function"
    },
    {
      "inputs": [
        {
          "internalType": "uint256",
          "name": "",
          "type": "uint256"
        }
      ],
      "name": "rebases",
      "outputs": [
        {
          "internalType": "uint256",
          "name": "epoch",
          "type": "uint256"
        },
        {
          "internalType": "uint256",
          "name": "rebase",
          "type": "uint256"
        },
        {
          "internalType": "uint256",
          "name": "totalStakedBefore",
          "type": "uint256"
        },
        {
          "internalType": "uint256",
          "name": "totalStakedAfter",
          "type": "uint256"
        },
        {
          "internalType": "uint256",
          "name": "amountRebased",
          "type": "uint256"
        },
        {
          "internalType": "uint256",
          "name": "index",
          "type": "uint256"
        },
        {
          "internalType": "uint256",
          "name": "blockNumberOccured",
          "type": "uint256"
        }
      ],
      "stateMutability": "view",
      "type": "function"
    },
    {
      "inputs": [],
      "name": "renounceOwnership",
      "outputs": [],
      "stateMutability": "nonpayable",
      "type": "function"
    },
    {
      "inputs": [
        {
          "internalType": "uint256",
          "name": "_INDEX",
          "type": "uint256"
        }
      ],
      "name": "setIndex",
      "outputs": [
        {
          "internalType": "bool",
          "name": "",
          "type": "bool"
        }
      ],
      "stateMutability": "nonpayable",
      "type": "function"
    },
    {
      "inputs": [],
      "name": "symbol",
      "outputs": [
        {
          "internalType": "string",
          "name": "",
          "type": "string"
        }
      ],
      "stateMutability": "view",
      "type": "function"
    },
    {
      "inputs": [],
      "name": "totalSupply",
      "outputs": [
        {
          "internalType": "uint256",
          "name": "",
          "type": "uint256"
        }
      ],
      "stateMutability": "view",
      "type": "function"
    },
    {
      "inputs": [
        {
          "internalType": "address",
          "name": "to",
          "type": "address"
        },
        {
          "internalType": "uint256",
          "name": "value",
          "type": "uint256"
        }
      ],
      "name": "transfer",
      "outputs": [
        {
          "internalType": "bool",
          "name": "",
          "type": "bool"
        }
      ],
      "stateMutability": "nonpayable",
      "type": "function"
    },
    {
      "inputs": [
        {
          "internalType": "address",
          "name": "from",
          "type": "address"
        },
        {
          "internalType": "address",
          "name": "to",
          "type": "address"
        },
        {
          "internalType": "uint256",
          "name": "value",
          "type": "uint256"
        }
      ],
      "name": "transferFrom",
      "outputs": [
        {
          "internalType": "bool",
          "name": "",
          "type": "bool"
        }
      ],
      "stateMutability": "nonpayable",
      "type": "function"
    },
    {
      "inputs": [
        {
          "internalType": "address",
          "name": "newOwner_",
          "type": "address"
        }
      ],
      "name": "transferOwnership",
      "outputs": [],
      "stateMutability": "nonpayable",
      "type": "function"
    },
    {
      "inputs": [],
      "name": "vault",
      "outputs": [
        {
          "internalType": "address",
          "name": "",
          "type": "address"
        }
      ],
      "stateMutability": "view",
      "type": "function"
    }
  ],
  "bytecode": "0x608060405260058054610100600160a81b031916742fe20cb1451c9b195a003b98bdd5df361d467d52001790553480156200003957600080fd5b50604080518082018252600b81526a5374616b6564204779726f60a81b60208083019182528351808501909452600c84526b73496e66696e69747944414f60a01b90840152815191929160099162000095916003919062000392565b508151620000ab90600490602085019062000392565b506005805460ff191660ff92909216919091179055504690507f8b73c3c69bb8fe3d512ecc4cf759cc79239f7b179b0ffacaa9a75d522b39400f620000ef62000200565b805160209182012060408051808201825260018152603160f81b90840152805180840194909452838101919091527fc89efdaa54c0f20c7adf612882df0950f5a951637e0307cdcb4c672f298b8bc6606084015260808301939093523060a0808401919091528351808403909101815260c0909201928390528151910120600755600880546001600160a01b0319163317908190556001600160a01b0316906000907f8be0079c531659141344cd1fd0a4f28419497f9722a3daafe3b4186f6b6457e0908290a3600a80546001600160a01b031916331790556611c37937e080006002819055620001f7908060001906600019036200029a60201b6200148b1790919060201c565b600d556200043e565b60038054604080516020601f6002600019610100600188161502019095169490940493840181900481028201810190925282815260609390929091830182828015620002905780601f10620002645761010080835404028352916020019162000290565b820191906000526020600020905b8154815290600101906020018083116200027257829003601f168201915b5050505050905090565b6000620002e483836040518060400160405280601a81526020017f536166654d6174683a206469766973696f6e206279207a65726f000000000000815250620002eb60201b60201c565b9392505050565b600081836200037b5760405162461bcd60e51b81526004018080602001828103825283818151815260200191508051906020019080838360005b838110156200033f57818101518382015260200162000325565b50505050905090810190601f1680156200036d5780820380516001836020036101000a031916815260200191505b509250505060405180910390fd5b5060008385816200038857fe5b0495945050505050565b828054600181600116156101000203166002900490600052602060002090601f016020900481019282620003ca576000855562000415565b82601f10620003e557805160ff191683800117855562000415565b8280016001018555821562000415579182015b8281111562000415578251825591602001919060010190620003f8565b506200042392915062000427565b5090565b5b8082111562000423576000815560010162000428565b6117bf806200044e6000396000f3fe608060405234801561001057600080fd5b50600436106101da5760003560e01c806373c69eb7116101045780639ce110d7116100a2578063d505accf11610071578063d505accf1461053d578063dd62ed3e1461058e578063f2fde38b146105bc578063fbfa77cf146105e2576101da565b80639ce110d7146104b7578063a457c2d7146104bf578063a9059cbb146104eb578063c4d66de814610517576101da565b80637ecebe00116100de5780637ecebe00146104795780638da5cb5b1461049f5780639358928b146104a757806395d89b41146104af576101da565b806373c69eb7146103e357806375f0a874146104385780637965d56d1461045c576101da565b80632df75cb11161017c578063395093511161014b578063395093511461036a57806340a5737f1461039657806370a08231146103b3578063715018a6146103d9576101da565b80632df75cb11461033457806330adf81f1461033c578063313ce567146103445780633644e51514610362576101da565b806318160ddd116101b857806318160ddd146102d15780631bd39674146102d957806323b872dd146102f65780632986c0e51461032c576101da565b8063058ecdb4146101df57806306fdde0314610214578063095ea7b314610291575b600080fd5b610202600480360360408110156101f557600080fd5b50803590602001356105ea565b60408051918252519081900360200190f35b61021c610868565b6040805160208082528351818301528351919283929083019185019080838360005b8381101561025657818101518382015260200161023e565b50505050905090810190601f1680156102835780820380516001836020036101000a031916815260200191505b509250505060405180910390f35b6102bd600480360360408110156102a757600080fd5b506001600160a01b0381351690602001356108fe565b604080519115158252519081900360200190f35b610202610952565b610202600480360360208110156102ef57600080fd5b5035610958565b6102bd6004803603606081101561030c57600080fd5b506001600160a01b0381358116916020810135909116906040013561096f565b610202610aa9565b610202610abb565b610202610ac1565b61034c610ae5565b6040805160ff9092168252519081900360200190f35b610202610aee565b6102bd6004803603604081101561038057600080fd5b506001600160a01b038135169060200135610af4565b6102bd600480360360208110156103ac57600080fd5b5035610b75565b610202600480360360208110156103c957600080fd5b50356001600160a01b0316610bf8565b6103e1610c20565b005b610400600480360360208110156103f957600080fd5b5035610cc9565b604080519788526020880196909652868601949094526060860192909252608085015260a084015260c0830152519081900360e00190f35b610440610d1b565b604080516001600160a01b039092168252519081900360200190f35b6102026004803603602081101561047257600080fd5b5035610d2f565b6102026004803603602081101561048f57600080fd5b50356001600160a01b0316610d46565b610440610d67565b610202610d76565b61021c610d9b565b610440610dfc565b6102bd600480360360408110156104d557600080fd5b506001600160a01b038135169060200135610e0b565b6102bd6004803603604081101561050157600080fd5b506001600160a01b038135169060200135610ee2565b6103e16004803603602081101561052d57600080fd5b50356001600160a01b0316610fa2565b6103e1600480360360e081101561055357600080fd5b506001600160a01b03813581169160208101359091169060408101359060608101359060ff6080820135169060a08101359060c0013561110e565b610202600480360360408110156105a457600080fd5b506001600160a01b0381358116916020013516611351565b6103e1600480360360208110156105d257600080fd5b50356001600160a01b031661137c565b61044061147c565b6009546000906001600160a01b0316331461060457600080fd5b6000806000610611610d76565b9050856106a857600254604080514281526020810192909252805187927f917acfbe39be6509ccf7fecb66a7e42ce2be1083c2d7dd3b9b7491dabddb8da492908290030190a2847f6012dbce857565c4a40974aa5de8373a761fc429077ef0c8c8611d1e20d63fb26000610683610aa9565b6040805192835260208301919091528051918290030190a26002549350505050610862565b80156106ec576106cd816106c7600254896114d490919063ffffffff16565b9061148b565b92506106e5816106c788670de0b6b3a76400006114d4565b91506106f5565b85925060001991505b600254610702908461152d565b60028190556001600160801b031015610721576001600160801b036002555b60025461073790660e3d2cfe61ffff199061148b565b600d556000610744610aa9565b9050600b6040518060e0016040528088815260200185815260200184815260200161076d610d76565b815260208082018b905260408083018690524360609384015284546001818101875560009687529583902085516007909202019081558483015195810195909555838101516002808701919091559284015160038601556080840151600486015560a0840151600586015560c09093015160069094019390935554815142815292830152805188927f917acfbe39be6509ccf7fecb66a7e42ce2be1083c2d7dd3b9b7491dabddb8da492908290030190a26040805184815260208101839052815188927f6012dbce857565c4a40974aa5de8373a761fc429077ef0c8c8611d1e20d63fb2928290030190a26002549450505050505b92915050565b60038054604080516020601f60026000196101006001881615020190951694909404938401819004810282018101909252828152606093909290918301828280156108f45780601f106108c9576101008083540402835291602001916108f4565b820191906000526020600020905b8154815290600101906020018083116108d757829003601f168201915b5050505050905090565b336000818152600f602090815260408083206001600160a01b0387168085529083528184208690558151868152915193949093909260008051602061176a833981519152928290030190a350600192915050565b60025490565b6000610862600d54836114d490919063ffffffff16565b6001600160a01b0383166000908152600f6020908152604080832033845290915281205461099d9083611587565b6001600160a01b0385166000818152600f602090815260408083203380855290835292819020859055805194855251919360008051602061176a833981519152929081900390910190a360006109f283610958565b6001600160a01b0386166000908152600e6020526040902054909150610a189082611587565b6001600160a01b038087166000908152600e60205260408082209390935590861681522054610a47908261152d565b6001600160a01b038086166000818152600e602090815260409182902094909455805187815290519193928916927fddf252ad1be2c89b69c2b068fc378daa952ba7f163c4a11628f55a4df523b3ef92918290030190a3506001949350505050565b6000610ab6600c54610d2f565b905090565b600c5481565b7f6e71edae12b1b97f4d1f60370fef10105fa2faae0126114a169c64845d6126c981565b60055460ff1690565b60075481565b336000908152600f602090815260408083206001600160a01b0386168452909152812054610b22908361152d565b336000818152600f602090815260408083206001600160a01b03891680855290835292819020859055805194855251919360008051602061176a833981519152929081900390910190a350600192915050565b6008546000906001600160a01b03163314610bd7576040805162461bcd60e51b815260206004820181905260248201527f4f776e61626c653a2063616c6c6572206973206e6f7420746865206f776e6572604482015290519081900360640190fd5b600c5415610be457600080fd5b610bed82610958565b600c55506001919050565b600d546001600160a01b0382166000908152600e60205260408120549091610862919061148b565b6008546001600160a01b03163314610c7f576040805162461bcd60e51b815260206004820181905260248201527f4f776e61626c653a2063616c6c6572206973206e6f7420746865206f776e6572604482015290519081900360640190fd5b6008546040516000916001600160a01b0316907f8be0079c531659141344cd1fd0a4f28419497f9722a3daafe3b4186f6b6457e0908390a3600880546001600160a01b0319169055565b600b8181548110610cd957600080fd5b90600052602060002090600702016000915090508060000154908060010154908060020154908060030154908060040154908060050154908060060154905087565b60055461010090046001600160a01b031681565b6000610862600d548361148b90919063ffffffff16565b6001600160a01b0381166000908152600660205260408120610862906115c9565b6008546001600160a01b031690565b600954600090610ab690610d92906001600160a01b0316610bf8565b60025490611587565b60048054604080516020601f60026000196101006001881615020190951694909404938401819004810282018101909252828152606093909290918301828280156108f45780601f106108c9576101008083540402835291602001916108f4565b600a546001600160a01b031681565b336000908152600f602090815260408083206001600160a01b0386168452909152812054808310610e5f57336000908152600f602090815260408083206001600160a01b0388168452909152812055610e8e565b610e698184611587565b336000908152600f602090815260408083206001600160a01b03891684529091529020555b336000818152600f602090815260408083206001600160a01b03891680855290835292819020548151908152905192939260008051602061176a833981519152929181900390910190a35060019392505050565b600080610efa600d54846114d490919063ffffffff16565b336000908152600e6020526040902054909150610f179082611587565b336000908152600e6020526040808220929092556001600160a01b03861681522054610f43908261152d565b6001600160a01b0385166000818152600e60209081526040918290209390935580518681529051919233927fddf252ad1be2c89b69c2b068fc378daa952ba7f163c4a11628f55a4df523b3ef9281900390910190a35060019392505050565b600a546001600160a01b03163314610ff4576040805162461bcd60e51b815260206004820152601060248201526f27b7363c9034b734ba34b0b634bd32b960811b604482015290519081900360640190fd5b6001600160a01b038116611046576040805162461bcd60e51b81526020600482015260146024820152735661756c742063616e6e6f74206265207a65726f60601b604482015290519081900360640190fd5b600980546001600160a01b0319166001600160a01b038381169190911780835581166000908152600e60209081526040808320660e3d2cfe61ffff19905593546002548551908152945193169391927fddf252ad1be2c89b69c2b068fc378daa952ba7f163c4a11628f55a4df523b3ef9281900390910190a3604080516001600160a01b038316815290517f0289bce0d43430c6ae7db5567e37b34033c1367da418c50f9ed48d7eebfe701f9181900360200190a150600a80546001600160a01b0319169055565b83421115611163576040805162461bcd60e51b815260206004820152601860248201527f5065726d69743a206578706972656420646561646c696e650000000000000000604482015290519081900360640190fd5b6001600160a01b03871660009081526006602052604081207f6e71edae12b1b97f4d1f60370fef10105fa2faae0126114a169c64845d6126c9908990899089906111ac906115c9565b604080516020808201979097526001600160a01b0395861681830152939094166060840152608083019190915260a082015260c08082018990528251808303909101815260e08201835280519084012060075461190160f01b610100840152610102830152610122808301829052835180840390910181526101428301808552815191860191909120600091829052610162840180865281905260ff8a166101828501526101a284018990526101c28401889052935191955092936001926101e280820193601f1981019281900390910190855afa158015611292573d6000803e3d6000fd5b5050604051601f1901519150506001600160a01b038116158015906112c85750896001600160a01b0316816001600160a01b0316145b611319576040805162461bcd60e51b815260206004820152601e60248201527f45524332305065726d69743a20496e76616c6964207369676e61747572650000604482015290519081900360640190fd5b6001600160a01b038a16600090815260066020526040902061133a906115cd565b6113458a8a8a6115d6565b50505050505050505050565b6001600160a01b039182166000908152600f6020908152604080832093909416825291909152205490565b6008546001600160a01b031633146113db576040805162461bcd60e51b815260206004820181905260248201527f4f776e61626c653a2063616c6c6572206973206e6f7420746865206f776e6572604482015290519081900360640190fd5b6001600160a01b0381166114205760405162461bcd60e51b81526004018080602001828103825260268152602001806117236026913960400191505060405180910390fd5b6008546040516001600160a01b038084169216907f8be0079c531659141344cd1fd0a4f28419497f9722a3daafe3b4186f6b6457e090600090a3600880546001600160a01b0319166001600160a01b0392909216919091179055565b6009546001600160a01b031681565b60006114cd83836040518060400160405280601a81526020017f536166654d6174683a206469766973696f6e206279207a65726f000000000000815250611626565b9392505050565b6000826114e357506000610862565b828202828482816114f057fe5b04146114cd5760405162461bcd60e51b81526004018080602001828103825260218152602001806117496021913960400191505060405180910390fd5b6000828201838110156114cd576040805162461bcd60e51b815260206004820152601b60248201527f536166654d6174683a206164646974696f6e206f766572666c6f770000000000604482015290519081900360640190fd5b60006114cd83836040518060400160405280601e81526020017f536166654d6174683a207375627472616374696f6e206f766572666c6f7700008152506116c8565b5490565b80546001019055565b6001600160a01b038084166000818152600f60209081526040808320948716808452948252918290208590558151858152915160008051602061176a8339815191529281900390910190a3505050565b600081836116b25760405162461bcd60e51b81526004018080602001828103825283818151815260200191508051906020019080838360005b8381101561167757818101518382015260200161165f565b50505050905090810190601f1680156116a45780820380516001836020036101000a031916815260200191505b509250505060405180910390fd5b5060008385816116be57fe5b0495945050505050565b6000818484111561171a5760405162461bcd60e51b815260206004820181815283516024840152835190928392604490910191908501908083836000831561167757818101518382015260200161165f565b50505090039056fe4f776e61626c653a206e6577206f776e657220697320746865207a65726f2061646472657373536166654d6174683a206d756c7469706c69636174696f6e206f766572666c6f778c5be1e5ebec7d5bd14f71427d1e84f3dd0314c0f7b2291e5b200ac8c7c3b925a2646970667358221220afc91fded4b3b6ab48b9b0d22050b0cff1f5ee1a427ab4a97ad1aeed0657f0e164736f6c63430007050033",
  "linkReferences": {},
  "deployedLinkReferences": {}
}