{
  "_format": "hh-sol-artifact-1",
  "contractName": "InfinityDAO",
  "sourceName": "contracts/InfinityDAO.sol",
  "abi": [
    {
      "inputs": [
        {
          "internalType": "address",
          "name": "busd",
          "type": "address"
        }
      ],
      "stateMutability": "nonpayable",
      "type": "constructor"
    },
    {
      "anonymous": false,
      "inputs": [
        {
          "indexed": true,
          "internalType": "address",
          "name": "owner",
          "type": "address"
        },
        {
          "indexed": true,
          "internalType": "address",
          "name": "spender",
          "type": "address"
        },
        {
          "indexed": false,
          "internalType": "uint256",
          "name": "value",
          "type": "uint256"
        }
      ],
      "name": "Approval",
      "type": "event"
    },
    {
      "anonymous": false,
      "inputs": [
        {
          "indexed": false,
          "internalType": "address",
          "name": "oldMinter",
          "type": "address"
        },
        {
          "indexed": true,
          "internalType": "address",
          "name": "newMinter",
          "type": "address"
        }
      ],
      "name": "MinterSet",
      "type": "event"
    },
    {
      "anonymous": false,
      "inputs": [
        {
          "indexed": true,
          "internalType": "address",
          "name": "previousOwner",
          "type": "address"
        },
        {
          "indexed": true,
          "internalType": "address",
          "name": "newOwner",
          "type": "address"
        }
      ],
      "name": "OwnershipTransferred",
      "type": "event"
    },
    {
      "anonymous": false,
      "inputs": [
        {
          "indexed": false,
          "internalType": "uint256",
          "name": "previousTWAPEpochPeriod",
          "type": "uint256"
        },
        {
          "indexed": false,
          "internalType": "uint256",
          "name": "newTWAPEpochPeriod",
          "type": "uint256"
        }
      ],
      "name": "TWAPEpochChanged",
      "type": "event"
    },
    {
      "anonymous": false,
      "inputs": [
        {
          "indexed": true,
          "internalType": "address",
          "name": "previousTWAPOracle",
          "type": "address"
        },
        {
          "indexed": true,
          "internalType": "address",
          "name": "newTWAPOracle",
          "type": "address"
        }
      ],
      "name": "TWAPOracleChanged",
      "type": "event"
    },
    {
      "anonymous": false,
      "inputs": [
        {
          "indexed": true,
          "internalType": "address",
          "name": "newTWAPSource",
          "type": "address"
        }
      ],
      "name": "TWAPSourceAdded",
      "type": "event"
    },
    {
      "anonymous": false,
      "inputs": [
        {
          "indexed": true,
          "internalType": "address",
          "name": "removedTWAPSource",
          "type": "address"
        }
      ],
      "name": "TWAPSourceRemoved",
      "type": "event"
    },
    {
      "anonymous": false,
      "inputs": [
        {
          "indexed": false,
          "internalType": "uint256",
          "name": "timestamp",
          "type": "uint256"
        },
        {
          "indexed": false,
          "internalType": "bool",
          "name": "enabled",
          "type": "bool"
        }
      ],
      "name": "TradeEnabled",
      "type": "event"
    },
    {
      "anonymous": false,
      "inputs": [
        {
          "indexed": true,
          "internalType": "address",
          "name": "from",
          "type": "address"
        },
        {
          "indexed": true,
          "internalType": "address",
          "name": "to",
          "type": "address"
        },
        {
          "indexed": false,
          "internalType": "uint256",
          "name": "value",
          "type": "uint256"
        }
      ],
      "name": "Transfer",
      "type": "event"
    },
    {
      "inputs": [],
      "name": "DOMAIN_SEPARATOR",
      "outputs": [
        {
          "internalType": "bytes32",
          "name": "",
          "type": "bytes32"
        }
      ],
      "stateMutability": "view",
      "type": "function"
    },
    {
      "inputs": [],
      "name": "PERMIT_TYPEHASH",
      "outputs": [
        {
          "internalType": "bytes32",
          "name": "",
          "type": "bytes32"
        }
      ],
      "stateMutability": "view",
      "type": "function"
    },
    {
      "inputs": [],
      "name": "_tradeEnabled",
      "outputs": [
        {
          "internalType": "bool",
          "name": "",
          "type": "bool"
        }
      ],
      "stateMutability": "view",
      "type": "function"
    },
    {
      "inputs": [
        {
          "internalType": "address",
          "name": "newTWAPSourceDexPool_",
          "type": "address"
        }
      ],
      "name": "addTWAPSource",
      "outputs": [],
      "stateMutability": "nonpayable",
      "type": "function"
    },
    {
      "inputs": [
        {
          "internalType": "address",
          "name": "owner",
          "type": "address"
        },
        {
          "internalType": "address",
          "name": "spender",
          "type": "address"
        }
      ],
      "name": "allowance",
      "outputs": [
        {
          "internalType": "uint256",
          "name": "",
          "type": "uint256"
        }
      ],
      "stateMutability": "view",
      "type": "function"
    },
    {
      "inputs": [
        {
          "internalType": "address",
          "name": "spender",
          "type": "address"
        },
        {
          "internalType": "uint256",
          "name": "amount",
          "type": "uint256"
        }
      ],
      "name": "approve",
      "outputs": [
        {
          "internalType": "bool",
          "name": "",
          "type": "bool"
        }
      ],
      "stateMutability": "nonpayable",
      "type": "function"
    },
    {
      "inputs": [
        {
          "internalType": "address",
          "name": "account",
          "type": "address"
        }
      ],
      "name": "balanceOf",
      "outputs": [
        {
          "internalType": "uint256",
          "name": "",
          "type": "uint256"
        }
      ],
      "stateMutability": "view",
      "type": "function"
    },
    {
      "inputs": [
        {
          "internalType": "uint256",
          "name": "amount_",
          "type": "uint256"
        }
      ],
      "name": "burn",
      "outputs": [],
      "stateMutability": "nonpayable",
      "type": "function"
    },
    {
      "inputs": [
        {
          "internalType": "address",
          "name": "account_",
          "type": "address"
        },
        {
          "internalType": "uint256",
          "name": "amount_",
          "type": "uint256"
        }
      ],
      "name": "burnFrom",
      "outputs": [],
      "stateMutability": "nonpayable",
      "type": "function"
    },
    {
      "inputs": [],
      "name": "busdaddress",
      "outputs": [
        {
          "internalType": "address",
          "name": "",
          "type": "address"
        }
      ],
      "stateMutability": "view",
      "type": "function"
    },
    {
      "inputs": [
        {
          "internalType": "uint256",
          "name": "newTWAPEpochPeriod_",
          "type": "uint256"
        }
      ],
      "name": "changeTWAPEpochPeriod",
      "outputs": [],
      "stateMutability": "nonpayable",
      "type": "function"
    },
    {
      "inputs": [
        {
          "internalType": "address",
          "name": "newTWAPOracle_",
          "type": "address"
        }
      ],
      "name": "changeTWAPOracle",
      "outputs": [],
      "stateMutability": "nonpayable",
      "type": "function"
    },
    {
      "inputs": [],
      "name": "circulatingSupply",
      "outputs": [
        {
          "internalType": "uint256",
          "name": "",
          "type": "uint256"
        }
      ],
      "stateMutability": "view",
      "type": "function"
    },
    {
      "inputs": [],
      "name": "decimals",
      "outputs": [
        {
          "internalType": "uint8",
          "name": "",
          "type": "uint8"
        }
      ],
      "stateMutability": "view",
      "type": "function"
    },
    {
      "inputs": [
        {
          "internalType": "address",
          "name": "spender",
          "type": "address"
        },
        {
          "internalType": "uint256",
          "name": "subtractedValue",
          "type": "uint256"
        }
      ],
      "name": "decreaseAllowance",
      "outputs": [
        {
          "internalType": "bool",
          "name": "",
          "type": "bool"
        }
      ],
      "stateMutability": "nonpayable",
      "type": "function"
    },
    {
      "inputs": [],
      "name": "getNonCirculatingSupply",
      "outputs": [
        {
          "internalType": "uint256",
          "name": "",
          "type": "uint256"
        }
      ],
      "stateMutability": "view",
      "type": "function"
    },
    {
      "inputs": [
        {
          "internalType": "address",
          "name": "spender",
          "type": "address"
        },
        {
          "internalType": "uint256",
          "name": "addedValue",
          "type": "uint256"
        }
      ],
      "name": "increaseAllowance",
      "outputs": [
        {
          "internalType": "bool",
          "name": "",
          "type": "bool"
        }
      ],
      "stateMutability": "nonpayable",
      "type": "function"
    },
    {
      "inputs": [],
      "name": "liquidityAddress",
      "outputs": [
        {
          "internalType": "address",
          "name": "",
          "type": "address"
        }
      ],
      "stateMutability": "view",
      "type": "function"
    },
    {
      "inputs": [],
      "name": "marketingWallet",
      "outputs": [
        {
          "internalType": "address",
          "name": "",
          "type": "address"
        }
      ],
      "stateMutability": "view",
      "type": "function"
    },
    {
      "inputs": [
        {
          "internalType": "address",
          "name": "account_",
          "type": "address"
        },
        {
          "internalType": "uint256",
          "name": "amount_",
          "type": "uint256"
        }
      ],
      "name": "mint",
      "outputs": [],
      "stateMutability": "nonpayable",
      "type": "function"
    },
    {
      "inputs": [],
      "name": "minter",
      "outputs": [
        {
          "internalType": "address",
          "name": "",
          "type": "address"
        }
      ],
      "stateMutability": "view",
      "type": "function"
    },
    {
      "inputs": [],
      "name": "name",
      "outputs": [
        {
          "internalType": "string",
          "name": "",
          "type": "string"
        }
      ],
      "stateMutability": "view",
      "type": "function"
    },
    {
      "inputs": [
        {
          "internalType": "uint256",
          "name": "",
          "type": "uint256"
        }
      ],
      "name": "nonCirculatingAddresses",
      "outputs": [
        {
          "internalType": "address",
          "name": "",
          "type": "address"
        }
      ],
      "stateMutability": "view",
      "type": "function"
    },
    {
      "inputs": [
        {
          "internalType": "address",
          "name": "owner",
          "type": "address"
        }
      ],
      "name": "nonces",
      "outputs": [
        {
          "internalType": "uint256",
          "name": "",
          "type": "uint256"
        }
      ],
      "stateMutability": "view",
      "type": "function"
    },
    {
      "inputs": [],
      "name": "owner",
      "outputs": [
        {
          "internalType": "address",
          "name": "",
          "type": "address"
        }
      ],
      "stateMutability": "view",
      "type": "function"
    },
    {
      "inputs": [
        {
          "internalType": "address",
          "name": "owner",
          "type": "address"
        },
        {
          "internalType": "address",
          "name": "spender",
          "type": "address"
        },
        {
          "internalType": "uint256",
          "name": "amount",
          "type": "uint256"
        },
        {
          "internalType": "uint256",
          "name": "deadline",
          "type": "uint256"
        },
        {
          "internalType": "uint8",
          "name": "v",
          "type": "uint8"
        },
        {
          "internalType": "bytes32",
          "name": "r",
          "type": "bytes32"
        },
        {
          "internalType": "bytes32",
          "name": "s",
          "type": "bytes32"
        }
      ],
      "name": "permit",
      "outputs": [],
      "stateMutability": "nonpayable",
      "type": "function"
    },
    {
      "inputs": [
        {
          "internalType": "uint256",
          "name": "amount",
          "type": "uint256"
        },
        {
          "internalType": "address",
          "name": "busdAddressClone",
          "type": "address"
        }
      ],
      "name": "presale",
      "outputs": [],
      "stateMutability": "nonpayable",
      "type": "function"
    },
    {
      "inputs": [
        {
          "internalType": "address",
          "name": "twapSourceToRemove_",
          "type": "address"
        }
      ],
      "name": "removeTWAPSource",
      "outputs": [],
      "stateMutability": "nonpayable",
      "type": "function"
    },
    {
      "inputs": [],
      "name": "renounceOwnership",
      "outputs": [],
      "stateMutability": "nonpayable",
      "type": "function"
    },
    {
      "inputs": [
        {
          "internalType": "address",
          "name": "minter_",
          "type": "address"
        }
      ],
      "name": "setMinter",
      "outputs": [
        {
          "internalType": "bool",
          "name": "",
          "type": "bool"
        }
      ],
      "stateMutability": "nonpayable",
      "type": "function"
    },
    {
      "inputs": [
        {
          "internalType": "address[]",
          "name": "nonCirculatingAddresses_",
          "type": "address[]"
        }
      ],
      "name": "setNonCirculatingAddresses",
      "outputs": [
        {
          "internalType": "bool",
          "name": "",
          "type": "bool"
        }
      ],
      "stateMutability": "nonpayable",
      "type": "function"
    },
    {
      "inputs": [],
      "name": "symbol",
      "outputs": [
        {
          "internalType": "string",
          "name": "",
          "type": "string"
        }
      ],
      "stateMutability": "view",
      "type": "function"
    },
    {
      "inputs": [
        {
          "internalType": "address",
          "name": "sender",
          "type": "address"
        },
        {
          "internalType": "address",
          "name": "recipient",
          "type": "address"
        },
        {
          "internalType": "uint256",
          "name": "amount",
          "type": "uint256"
        },
        {
          "internalType": "address",
          "name": "busdAddressClone",
          "type": "address"
        }
      ],
      "name": "tax",
      "outputs": [],
      "stateMutability": "nonpayable",
      "type": "function"
    },
    {
      "inputs": [],
      "name": "totalSupply",
      "outputs": [
        {
          "internalType": "uint256",
          "name": "",
          "type": "uint256"
        }
      ],
      "stateMutability": "view",
      "type": "function"
    },
    {
      "inputs": [],
      "name": "tradeEnabled",
      "outputs": [],
      "stateMutability": "nonpayable",
      "type": "function"
    },
    {
      "inputs": [
        {
          "internalType": "address",
          "name": "recipient",
          "type": "address"
        },
        {
          "internalType": "uint256",
          "name": "amount",
          "type": "uint256"
        }
      ],
      "name": "transfer",
      "outputs": [
        {
          "internalType": "bool",
          "name": "",
          "type": "bool"
        }
      ],
      "stateMutability": "nonpayable",
      "type": "function"
    },
    {
      "inputs": [
        {
          "internalType": "address",
          "name": "sender",
          "type": "address"
        },
        {
          "internalType": "address",
          "name": "recipient",
          "type": "address"
        },
        {
          "internalType": "uint256",
          "name": "amount",
          "type": "uint256"
        }
      ],
      "name": "transferFrom",
      "outputs": [
        {
          "internalType": "bool",
          "name": "",
          "type": "bool"
        }
      ],
      "stateMutability": "nonpayable",
      "type": "function"
    },
    {
      "inputs": [
        {
          "internalType": "address",
          "name": "newOwner_",
          "type": "address"
        }
      ],
      "name": "transferOwnership",
      "outputs": [],
      "stateMutability": "nonpayable",
      "type": "function"
    },
    {
      "inputs": [],
      "name": "twapEpochPeriod",
      "outputs": [
        {
          "internalType": "uint256",
          "name": "",
          "type": "uint256"
        }
      ],
      "stateMutability": "view",
      "type": "function"
    },
    {
      "inputs": [],
      "name": "twapOracle",
      "outputs": [
        {
          "internalType": "contract ITWAPOracle",
          "name": "",
          "type": "address"
        }
      ],
      "stateMutability": "view",
      "type": "function"
    }
  ],
  "bytecode": "0x608060405260058054742fe20cb1451c9b195a003b98bdd5df361d467d5200610100600160a81b0319909116179055600f805460ff19169055601080546001600160a01b03191673811e29c7f306f08180d3d48fb04095578cd79e101790553480156200006b57600080fd5b5060405162002e3838038062002e38833981810160405260208110156200009157600080fd5b5051604080518082018252600c81526b496e66696e6974792044414f60a01b6020828101918252835180850190945260038085526224a72360e91b918501919091528251929392600992859285928592620000ed9291620002d8565b50815162000103906004906020850190620002d8565b506005805460ff191660ff92909216919091179055504690507f8b73c3c69bb8fe3d512ecc4cf759cc79239f7b179b0ffacaa9a75d522b39400f620001476200023e565b805160209182012060408051808201825260018152603160f81b90840152805180840194909452838101919091527fc89efdaa54c0f20c7adf612882df0950f5a951637e0307cdcb4c672f298b8bc6606084015260808301939093523060a0808401919091528351808403909101815260c0909201928390528151910120600755600880546001600160a01b0319163317908190556001600160a01b0316906000907f8be0079c531659141344cd1fd0a4f28419497f9722a3daafe3b4186f6b6457e0908290a35050600f80546001600160a01b0390931661010002610100600160a81b0319909316929092179091555062000384565b60038054604080516020601f6002600019610100600188161502019095169490940493840181900481028201810190925282815260609390929091830182828015620002ce5780601f10620002a257610100808354040283529160200191620002ce565b820191906000526020600020905b815481529060010190602001808311620002b057829003601f168201915b5050505050905090565b828054600181600116156101000203166002900490600052602060002090601f0160209004810192826200031057600085556200035b565b82601f106200032b57805160ff19168380011785556200035b565b828001600101855582156200035b579182015b828111156200035b5782518255916020019190600101906200033e565b50620003699291506200036d565b5090565b5b808211156200036957600081556001016200036e565b612aa480620003946000396000f3fe608060405234801561001057600080fd5b50600436106102485760003560e01c80637c2003e31161013b578063c18230ec116100b8578063dd62ed3e1161007c578063dd62ed3e146106fa578063eb3c0e8514610728578063efa058b114610730578063f2fde38b14610756578063fca3b5aa1461077c57610248565b8063c18230ec14610656578063c5bc70021461067c578063cf7ed41e14610684578063d505accf146106a1578063d621e813146106f257610248565b8063959da0e6116100ff578063959da0e6146105b257806395d89b41146105ee578063a457c2d7146105f6578063a9059cbb14610622578063b72340d21461064e57610248565b80637c2003e3146105485780637ecebe00146105745780638da5cb5b1461059a5780639043292a146105a25780639358928b146105aa57610248565b806339509351116101c957806350ffe7ef1161018d57806350ffe7ef1461047657806370a08231146104e6578063715018a61461050c57806375f0a8741461051457806379cc67901461051c57610248565b806339509351146103dc57806340c10f191461040857806342966c68146104345780634baf6123146104515780634daff8a31461045957610248565b806330adf81f1161021057806330adf81f1461037e578063313ce567146103865780633144fdf6146103a45780633221c93f146103cc5780633644e515146103d457610248565b806306fdde031461024d57806307546172146102ca578063095ea7b3146102ee57806318160ddd1461032e57806323b872dd14610348575b600080fd5b6102556107a2565b6040805160208082528351818301528351919283929083019185019080838360005b8381101561028f578181015183820152602001610277565b50505050905090810190601f1680156102bc5780820380516001836020036101000a031916815260200191505b509250505060405180910390f35b6102d2610838565b604080516001600160a01b039092168252519081900360200190f35b61031a6004803603604081101561030457600080fd5b506001600160a01b038135169060200135610847565b604080519115158252519081900360200190f35b61033661085e565b60408051918252519081900360200190f35b61031a6004803603606081101561035e57600080fd5b506001600160a01b03813581169160208101359091169060400135610864565b6103366109fc565b61038e610a20565b6040805160ff9092168252519081900360200190f35b6103ca600480360360208110156103ba57600080fd5b50356001600160a01b0316610a29565b005b6102d2610ad2565b610336610ae1565b61031a600480360360408110156103f257600080fd5b506001600160a01b038135169060200135610ae7565b6103ca6004803603604081101561041e57600080fd5b506001600160a01b038135169060200135610b22565b6103ca6004803603602081101561044a57600080fd5b5035610b8f565b6102d2610b9c565b6103ca6004803603602081101561046f57600080fd5b5035610bb0565b61031a6004803603602081101561048c57600080fd5b8101906020810181356401000000008111156104a757600080fd5b8201836020820111156104b957600080fd5b803590602001918460208302840111640100000000831117156104db57600080fd5b509092509050610c7e565b610336600480360360208110156104fc57600080fd5b50356001600160a01b0316610cda565b6103ca610cf5565b6102d2610d8c565b6103ca6004803603604081101561053257600080fd5b506001600160a01b038135169060200135610da0565b6103ca6004803603604081101561055e57600080fd5b50803590602001356001600160a01b0316610daa565b6103366004803603602081101561058a57600080fd5b50356001600160a01b03166110a5565b6102d26110c6565b6102d26110d5565b6103366110e4565b6103ca600480360360808110156105c857600080fd5b506001600160a01b03813581169160208101358216916040820135916060013516611106565b6102556114df565b61031a6004803603604081101561060c57600080fd5b506001600160a01b038135169060200135611540565b61031a6004803603604081101561063857600080fd5b506001600160a01b03813516906020013561158f565b61033661159c565b6103ca6004803603602081101561066c57600080fd5b50356001600160a01b03166115ab565b61033661168b565b6102d26004803603602081101561069a57600080fd5b5035611691565b6103ca600480360360e08110156106b757600080fd5b506001600160a01b03813581169160208101359091169060408101359060608101359060ff6080820135169060a08101359060c001356116bb565b6103ca6118fe565b6103366004803603604081101561071057600080fd5b506001600160a01b0381358116916020013516611998565b61031a6119c3565b6103ca6004803603602081101561074657600080fd5b50356001600160a01b03166119cc565b6103ca6004803603602081101561076c57600080fd5b50356001600160a01b0316611aac565b61031a6004803603602081101561079257600080fd5b50356001600160a01b0316611b9a565b60038054604080516020601f600260001961010060018816150201909516949094049384018190048102820181019092528281526060939092909183018282801561082e5780601f106108035761010080835404028352916020019161082e565b820191906000526020600020905b81548152906001019060200180831161081157829003601f168201915b5050505050905090565b6009546001600160a01b031690565b6000610854338484611caa565b5060015b92915050565b60025490565b60006108956040518060400160405280600e81526020016d1a195c99481a5cc812481dd85b9d60921b815250611e4e565b6108a56108a06110c6565b611ef4565b6108ad6110c6565b6001600160a01b0316846001600160a01b0316141580156108e757506108d16110c6565b6001600160a01b0316836001600160a01b031614155b15610968576109186040518060400160405280600b81526020016a1c99585b1b1e481dd85b9d60aa1b815250611e4e565b600f5460ff16610968576040805162461bcd60e51b81526020600482015260166024820152752a3930b2329034b9903737ba103cb2ba1037b832b71760511b604482015290519081900360640190fd5b600f5460408051634aced07360e11b81526001600160a01b038781166004830152868116602483015260448201869052610100909304909216606483015251309163959da0e691608480830192600092919082900301818387803b1580156109cf57600080fd5b505af11580156109e3573d6000803e3d6000fd5b505050506109f2848484611f40565b5060019392505050565b7f6e71edae12b1b97f4d1f60370fef10105fa2faae0126114a169c64845d6126c981565b60055460ff1690565b6008546001600160a01b03163314610a76576040805162461bcd60e51b8152602060048201819052602482015260008051602061299c833981519152604482015290519081900360640190fd5b600c546040516001600160a01b038084169216907f04d449efb9af82ca8fd89ca047e3c023180cac06245c5ace8ecf96c7f637c00a90600090a3600c80546001600160a01b0319166001600160a01b0392909216919091179055565b6010546001600160a01b031681565b60075481565b3360008181526001602090815260408083206001600160a01b03871684529091528120549091610854918590610b1d908661209b565b611caa565b6009546001600160a01b03163314610b81576040805162461bcd60e51b815260206004820152601860248201527f43616c6c6572206973206e6f7420746865206d696e7465720000000000000000604482015290519081900360640190fd5b610b8b82826120fc565b5050565b610b9933826121ec565b50565b600f5461010090046001600160a01b031681565b6008546001600160a01b03163314610bfd576040805162461bcd60e51b8152602060048201819052602482015260008051602061299c833981519152604482015290519081900360640190fd5b60008111610c3c5760405162461bcd60e51b815260040180806020018281038252603c81526020018061293a603c913960400191505060405180910390fd5b600d54604080519182526020820183905280517fcddeab46bd7c7fa32f59b80523bce21904a7f2031ac8fbefa3f9c2ba24cc0e9f9281900390910190a1600d55565b6008546000906001600160a01b03163314610cce576040805162461bcd60e51b8152602060048201819052602482015260008051602061299c833981519152604482015290519081900360640190fd5b6109f2600e8484612834565b6001600160a01b031660009081526020819052604090205490565b6008546001600160a01b03163314610d42576040805162461bcd60e51b8152602060048201819052602482015260008051602061299c833981519152604482015290519081900360640190fd5b6008546040516000916001600160a01b0316907f8be0079c531659141344cd1fd0a4f28419497f9722a3daafe3b4186f6b6457e0908390a3600880546001600160a01b0319169055565b60055461010090046001600160a01b031681565b610b8b82826122e8565b604080516370a0823160e01b8152336004820152905160009130916370a0823191602480820192602092909190829003018186803b158015610deb57600080fd5b505afa158015610dff573d6000803e3d6000fd5b505050506040513d6020811015610e1557600080fd5b5051604080518082019091526006815265185b5bdd5b9d60d21b6020820152909150610e419084612334565b82633b9aca0002816406fc23ac000311610e97576040805162461bcd60e51b81526020600482015260126024820152710596f757220494e46206578636565642033360741b604482015290519081900360640190fd5b610ea73384633b9aca00026120fc565b604080518082018252600781526662616c616e636560c81b60208083019190915282516370a0823160e01b81523360048201529251610f3c936001600160a01b038716926370a0823192602480840193829003018186803b158015610f0b57600080fd5b505afa158015610f1f573d6000803e3d6000fd5b505050506040513d6020811015610f3557600080fd5b5051612334565b604080516370a0823160e01b815233600482015290516802b5e3af16b18800008502916001600160a01b038516916370a0823191602480820192602092909190829003018186803b158015610f9057600080fd5b505afa158015610fa4573d6000803e3d6000fd5b505050506040513d6020811015610fba57600080fd5b50511161100e576040805162461bcd60e51b815260206004820152601a60248201527f596f757220425553442065786365656420616c6c6f77616e6365000000000000604482015290519081900360640190fd5b601054604080516323b872dd60e01b81523360048201526001600160a01b0392831660248201526802b5e3af16b1880000860260448201529051918416916323b872dd916064808201926020929091908290030181600087803b15801561107457600080fd5b505af1158015611088573d6000803e3d6000fd5b505050506040513d602081101561109e57600080fd5b5050505050565b6001600160a01b0381166000908152600660205260408120610858906123e2565b6008546001600160a01b031690565b600c546001600160a01b031681565b6000806111006110f26123e6565b6110fa61085e565b90612444565b91505090565b6000306001600160a01b03166370a08231866040518263ffffffff1660e01b815260040180826001600160a01b0316815260200191505060206040518083038186803b15801561115557600080fd5b505afa158015611169573d6000803e3d6000fd5b505050506040513d602081101561117f57600080fd5b50516040805180820190915260038152620e8c2f60eb1b60208201529091506111a790611e4e565b6111d06040518060400160405280600781526020016662616c616e636560c81b81525082612334565b6111f96040518060400160405280600781526020016662616c616e636560c81b81525084612334565b82633b9aca00028111611253576040805162461bcd60e51b815260206004820181905260248201527f596f757220616d6f756e74206578636565647320796f75722062616c616e6365604482015290519081900360640190fd5b604080516323b872dd60e01b81526001600160a01b03878116600483015286166024820152633b9aca0085026044820152905130916323b872dd9160648083019260209291908290030181600087803b1580156112af57600080fd5b505af11580156112c3573d6000803e3d6000fd5b505050506040513d60208110156112d957600080fd5b5050604080516370a0823160e01b81526001600160a01b03868116600483015291516802b5e3af16b18800008602928516916370a08231916024808301926020929190829003018186803b15801561133057600080fd5b505afa158015611344573d6000803e3d6000fd5b505050506040513d602081101561135a57600080fd5b5051116113ae576040805162461bcd60e51b815260206004820152601a60248201527f596f757220555344542065786365656420616c6c6f77616e6365000000000000604482015290519081900360640190fd5b604080516323b872dd60e01b81526001600160a01b03868116600483015287811660248301526064690106eb45579944880000870281900460448401529251908516926323b872dd928082019260209290918290030181600087803b15801561141657600080fd5b505af115801561142a573d6000803e3d6000fd5b505050506040513d602081101561144057600080fd5b5050601054604080516323b872dd60e01b81526001600160a01b03878116600483015292831660248201526064680821ab0d4414980000870281900460448301529151928516926323b872dd928281019260209291908290030181600087803b1580156114ac57600080fd5b505af11580156114c0573d6000803e3d6000fd5b505050506040513d60208110156114d657600080fd5b50505050505050565b60048054604080516020601f600260001961010060018816150201909516949094049384018190048102820181019092528281526060939092909183018282801561082e5780601f106108035761010080835404028352916020019161082e565b60006108543384610b1d85604051806060016040528060258152602001612a4a602591393360009081526001602090815260408083206001600160a01b038d1684529091529020549190612482565b6000610854338484611f40565b60006115a66123e6565b905090565b6008546001600160a01b031633146115f8576040805162461bcd60e51b8152602060048201819052602482015260008051602061299c833981519152604482015290519081900360640190fd5b611603600a82612519565b611654576040805162461bcd60e51b815260206004820152601b60248201527f5457415020536f7572636520616c72656164792073746f7265642e0000000000604482015290519081900360640190fd5b6040516001600160a01b038216907fb702ce677d2c4388aab38b10f96ca003dbe3dadb46fbf858cb7d55cba6bebc4690600090a250565b600d5481565b600e81815481106116a157600080fd5b6000918252602090912001546001600160a01b0316905081565b83421115611710576040805162461bcd60e51b815260206004820152601860248201527f5065726d69743a206578706972656420646561646c696e650000000000000000604482015290519081900360640190fd5b6001600160a01b03871660009081526006602052604081207f6e71edae12b1b97f4d1f60370fef10105fa2faae0126114a169c64845d6126c990899089908990611759906123e2565b604080516020808201979097526001600160a01b0395861681830152939094166060840152608083019190915260a082015260c08082018990528251808303909101815260e08201835280519084012060075461190160f01b610100840152610102830152610122808301829052835180840390910181526101428301808552815191860191909120600091829052610162840180865281905260ff8a166101828501526101a284018990526101c28401889052935191955092936001926101e280820193601f1981019281900390910190855afa15801561183f573d6000803e3d6000fd5b5050604051601f1901519150506001600160a01b038116158015906118755750896001600160a01b0316816001600160a01b0316145b6118c6576040805162461bcd60e51b815260206004820152601e60248201527f45524332305065726d69743a20496e76616c6964207369676e61747572650000604482015290519081900360640190fd5b6001600160a01b038a1660009081526006602052604090206118e79061252e565b6118f28a8a8a611caa565b50505050505050505050565b6008546001600160a01b0316331461194b576040805162461bcd60e51b8152602060048201819052602482015260008051602061299c833981519152604482015290519081900360640190fd5b600f805460ff1916600190811790915560408051428152602081019290925280517f8ce4b71b4c9af5b0928df5f9495459bc16bfff7d58b6b371283c1485c8cd755a9281900390910190a1565b6001600160a01b03918216600090815260016020908152604080832093909416825291909152205490565b600f5460ff1681565b6008546001600160a01b03163314611a19576040805162461bcd60e51b8152602060048201819052602482015260008051602061299c833981519152604482015290519081900360640190fd5b611a24600a82612537565b611a75576040805162461bcd60e51b815260206004820152601860248201527f5457415020736f75726365206e6f742070726573656e742e0000000000000000604482015290519081900360640190fd5b6040516001600160a01b038216907f677b09947a451559cdf8756f4cb518daf9620feb88ad8f3434a77f4cbfc73bc990600090a250565b6008546001600160a01b03163314611af9576040805162461bcd60e51b8152602060048201819052602482015260008051602061299c833981519152604482015290519081900360640190fd5b6001600160a01b038116611b3e5760405162461bcd60e51b81526004018080602001828103825260268152602001806128f26026913960400191505060405180910390fd5b6008546040516001600160a01b038084169216907f8be0079c531659141344cd1fd0a4f28419497f9722a3daafe3b4186f6b6457e090600090a3600880546001600160a01b0319166001600160a01b0392909216919091179055565b6008546000906001600160a01b03163314611bea576040805162461bcd60e51b8152602060048201819052602482015260008051602061299c833981519152604482015290519081900360640190fd5b6001600160a01b038216611c45576040805162461bcd60e51b815260206004820152601d60248201527f4d696e7465722063616e6e6f742062652061646472657373207a65726f000000604482015290519081900360640190fd5b600980546001600160a01b038481166001600160a01b0319831617928390556040805192821680845290519093909116917f02b23d62d8f733974f8cb13eb804b20135521322b70997c991fc01406632389f919081900360200190a250600192915050565b611cd76040518060400160405280600a81526020016930b2323932b9b990181d60b11b815250600061254c565b611d076040518060400160405280600e81526020016d30b2323932b9b99037bbb732b91d60911b8152508461254c565b611d396040518060400160405280601081526020016f30b2323932b9b99039b832b73232b91d60811b8152508361254c565b611d626040518060400160405280600781526020016630b6b7bab73a1d60c91b81525082612334565b6001600160a01b038316611da75760405162461bcd60e51b8152600401808060200182810382526024815260200180612a266024913960400191505060405180910390fd5b6001600160a01b038216611dec5760405162461bcd60e51b81526004018080602001828103825260228152602001806129186022913960400191505060405180910390fd5b6001600160a01b03808416600081815260016020908152604080832094871680845294825291829020859055815185815291517f8c5be1e5ebec7d5bd14f71427d1e84f3dd0314c0f7b2291e5b200ac8c7c3b9259281900390910190a3505050565b610b99816040516024018080602001828103825283818151815260200191508051906020019080838360005b83811015611e92578181015183820152602001611e7a565b50505050905090810190601f168015611ebf5780820380516001836020036101000a031916815260200191505b5060408051601f198184030181529190526020810180516001600160e01b031663104c13eb60e21b1790529250612603915050565b604080516001600160a01b0383166024808301919091528251808303909101815260449091019091526020810180516001600160e01b031663161765e160e11b179052610b9990612603565b6001600160a01b038316611f855760405162461bcd60e51b8152600401808060200182810382526025815260200180612a016025913960400191505060405180910390fd5b6001600160a01b038216611fca5760405162461bcd60e51b81526004018080602001828103825260238152602001806128ad6023913960400191505060405180910390fd5b611fd5838383612624565b61201281604051806060016040528060268152602001612976602691396001600160a01b0386166000908152602081905260409020549190612482565b6001600160a01b038085166000908152602081905260408082209390935590841681522054612041908261209b565b6001600160a01b038084166000818152602081815260409182902094909455805185815290519193928716927fddf252ad1be2c89b69c2b068fc378daa952ba7f163c4a11628f55a4df523b3ef92918290030190a3505050565b6000828201838110156120f5576040805162461bcd60e51b815260206004820152601b60248201527f536166654d6174683a206164646974696f6e206f766572666c6f770000000000604482015290519081900360640190fd5b9392505050565b6001600160a01b038216612157576040805162461bcd60e51b815260206004820152601f60248201527f45524332303a206d696e7420746f20746865207a65726f206164647265737300604482015290519081900360640190fd5b612162308383612624565b60025461216f908261209b565b6002556001600160a01b038216600090815260208190526040902054612195908261209b565b6001600160a01b038316600081815260208181526040918290209390935580518481529051919230927fddf252ad1be2c89b69c2b068fc378daa952ba7f163c4a11628f55a4df523b3ef9281900390910190a35050565b6001600160a01b0382166122315760405162461bcd60e51b81526004018080602001828103825260218152602001806129e06021913960400191505060405180910390fd5b61223d82600083612624565b61227a816040518060600160405280602281526020016128d0602291396001600160a01b0385166000908152602081905260409020549190612482565b6001600160a01b0383166000908152602081905260409020556002546122a09082612444565b6002556040805182815290516000916001600160a01b038516917fddf252ad1be2c89b69c2b068fc378daa952ba7f163c4a11628f55a4df523b3ef9181900360200190a35050565b6000612318826040518060600160405280602481526020016129bc602491396123118633611998565b9190612482565b9050612325833383611caa565b61232f83836121ec565b505050565b610b8b82826040516024018080602001838152602001828103825284818151815260200191508051906020019080838360005b8381101561237f578181015183820152602001612367565b50505050905090810190601f1680156123ac5780820380516001836020036101000a031916815260200191505b5060408051601f198184030181529190526020810180516001600160e01b03166309710a9d60e41b179052935061260392505050565b5490565b60008060005b600e5481101561243e5761242a612423600e838154811061240957fe5b6000918252602090912001546001600160a01b0316610cda565b839061209b565b915061243781600161209b565b90506123ec565b50905090565b60006120f583836040518060400160405280601e81526020017f536166654d6174683a207375627472616374696f6e206f766572666c6f7700008152505b600081848411156125115760405162461bcd60e51b81526004018080602001828103825283818151815260200191508051906020019080838360005b838110156124d65781810151838201526020016124be565b50505050905090810190601f1680156125035780820380516001836020036101000a031916815260200191505b509250505060405180910390fd5b505050900390565b60006120f5836001600160a01b038416612661565b80546001019055565b60006120f5836001600160a01b0384166126ab565b610b8b82826040516024018080602001836001600160a01b03168152602001828103825284818151815260200191508051906020019080838360005b838110156125a0578181015183820152602001612588565b50505050905090810190601f1680156125cd5780820380516001836020036101000a031916815260200191505b5060408051601f198184030181529190526020810180516001600160e01b031663319af33360e01b179052935061260392505050565b80516a636f6e736f6c652e6c6f67602083016000808483855afa5050505050565b61262f600a84612771565b156126455761264083600d54612786565b61232f565b612650600a83612771565b1561232f5761232f82600d54612786565b600061266d838361281c565b6126a357508154600181810184556000848152602080822090930184905584548482528286019093526040902091909155610858565b506000610858565b6000818152600183016020526040812054801561276757835460001980830191908101906000908790839081106126de57fe5b90600052602060002001549050808760000184815481106126fb57fe5b60009182526020808320909101929092558281526001898101909252604090209084019055865487908061272b57fe5b60019003818190600052602060002001600090559055866001016000878152602001908152602001600020600090556001945050505050610858565b6000915050610858565b60006120f5836001600160a01b03841661281c565b612791600a83612771565b15610b8b57600c54604080516377a8d4c160e11b81526001600160a01b038581166004830152602482018590529151919092169163ef51a9829160448083019260209291908290030181600087803b1580156127ec57600080fd5b505af1158015612800573d6000803e3d6000fd5b505050506040513d602081101561281657600080fd5b50505050565b60009081526001919091016020526040902054151590565b828054828255906000526020600020908101928215612887579160200282015b828111156128875781546001600160a01b0319166001600160a01b03843516178255602090920191600190910190612854565b50612893929150612897565b5090565b5b80821115612893576000815560010161289856fe45524332303a207472616e7366657220746f20746865207a65726f206164647265737345524332303a206275726e20616d6f756e7420657863656564732062616c616e63654f776e61626c653a206e6577206f776e657220697320746865207a65726f206164647265737345524332303a20617070726f766520746f20746865207a65726f2061646472657373545741504f7261636c65557064617465723a20545741502045706f636820706572696f64206d7573742062652067726561746572207468616e20302e45524332303a207472616e7366657220616d6f756e7420657863656564732062616c616e63654f776e61626c653a2063616c6c6572206973206e6f7420746865206f776e657245524332303a206275726e20616d6f756e74206578636565647320616c6c6f77616e636545524332303a206275726e2066726f6d20746865207a65726f206164647265737345524332303a207472616e736665722066726f6d20746865207a65726f206164647265737345524332303a20617070726f76652066726f6d20746865207a65726f206164647265737345524332303a2064656372656173656420616c6c6f77616e63652062656c6f77207a65726fa264697066735822122069dbc694ae4b894fb3b1e7064abc09227eae3143900a090027d5d7f0e53f87e864736f6c63430007050033",
  "linkReferences": {},
  "deployedLinkReferences": {}
}